:020000040800F2
:1000000088040020050100087515000893140008F5
:10001000711500089D0100080D180008000000007F
:10002000000000000000000000000000A51500080E
:10003000190200080000000079150008A715000843
:100040001F0100081F0100081F0100081F01000810
:100050001F0100081F0100081F0100081F01000800
:100060001F0100081F0100081F0100081F010008F0
:100070001F0100081F0100081F0100081F010008E0
:100080001F0100081F0100081F0100081F010008D0
:100090001F0100081F0100081F0100081F010008C0
:1000A0001F0100081F0100081F0100081F010008B0
:1000B0001F0100081F0100081F0100081F010008A0
:1000C0001F0100081F0100081F0100081F01000890
:1000D0001F0100081F0100081F0100081F01000880
:1000E0001F0100081F0100081F010008DFF810D0E1
:1000F00000F042F8004800475D1A0008AFF30080A6
:10010000880400200648804706480047FEE7FEE7CF
:10011000FEE7FEE7FEE7FEE7FEE7FEE7FEE7FEE7B7
:1001200015160008ED000008D2B201E000F8012B1E
:10013000491EFBD270470022F6E710B513460A4667
:1001400004461946FFF7F0FF204610BD30B50B46B8
:10015000014600202022012409E021FA02F59D42F7
:1001600005D303FA02F5491B04FA02F52844151ECB
:10017000A2F10102F1DC30BD064C074D06E0E0685B
:1001800040F0010394E8070098471034AC42F6D3DE
:10019000FFF7B0FF1C1B00083C1B000800BFFEE778
:1001A00000B58BB000200690079001200890002039
:1001B000019002900390049005900120099001A9FC
:1001C000024800F02DF80BB000BD00001400002024
:1001D000F0B587B005460E4600210E4800F0A5F8A0
:1001E00007463770002410E005EB0410031D6A4633
:1001F0000021084800F0ADF805EB041100980860F4
:1002000005EB041104980873641CBC42ECD307B0DE
:10021000F0BD000014000020704772B600BFFEE77A
:10022000F0B504460A46216894F82050012D01D00B
:10023000022D74D1D1F8000240F00100C1F8000293
:10024000107D00F01F06012000FA06F3D1F81C0211
:100250009843C1F81C02D069C8B9D1F80C02984380
:10026000C1F80C02908880B2968940EA064601F5F2
:100270001070576940F83760108880B2168940EADC
:10028000064601F51070576900EBC7004660D0695B
:10029000012819D1D1F80C021843C1F80C0290883A
:1002A00080B2168840EA064601F51070576940F89A
:1002B0003760908980B2168940EA064601F51070D1
:1002C000576900EBC7004660906928B9D1F804026D
:1002D0009843C1F8040204E0D1F804021843C1F8BD
:1002E0000402106928B9D1F814029843C1F8140225
:1002F00004E0D1F814021843C1F81402106A01286E
:1003000004D1D1F81C021843C1F81C02D1F8000234
:1003100020F00100C1F800020020F0BDFFE7606A94
:1003200040F4802060620120F7E710B5024600200B
:1003300092F82030012B01D0022B09D121B9146889
:10034000E46804F0030003E01468246904F0030087
:1003500010BD70B5044694F82050012D01D0022D37
:100360007DD151B92068C06800F0030080B9606A8F
:1003700040F400106062012070BD2068006900F048
:10038000030028B9606A40F4001060620120F3E7BE
:10039000206800F5D87000EB0110006800F0040040
:1003A0009060906840B9206800F5D87000EB0110AB
:1003B0000068400D106007E0206800F5D87000EB81
:1003C00001100068C0085060206800F5D87000EB8C
:1003D0000110006800F00200D060206800F5D870BD
:1003E00000EB0110406800F00F00082802D308203D
:1003F000106108E0206800F5D87000EB011040683B
:1004000000F00F001061206800F5D87000EB0110BB
:10041000406800F47F40000A9061206800F5D870C1
:1004200000EB01104068000C5061206800F5D870A6
:1004300000EB011080681870206800F5D87000EBA0
:100440000110806800F47F40000A5870206800F5B1
:10045000D87000EB0110806800F47F0000E03CE001
:10046000000C9870206800F5D87000EB01108068CF
:10047000000ED870206800F5D87000EB0110C0683D
:100480001871206800F5D87000EB0110C06800F406
:100490007F40000A5871206800F5D87000EB011009
:1004A000C06800F47F00000C9871206800F5D870D7
:1004B00000EB0110C068000ED87131B92068C06827
:1004C00040F020002668F06005E02068006940F0F8
:1004D00020002668306100204EE7606A40F48020EA
:1004E0006062012048E770B504460CB9012070BD78
:1004F00094F8200010B9204600F0B0F82068006899
:1005000040F001002168086000F0ACFA05460DE0FB
:1005100000F0A8FA401B0A2808D9606A40F40030AD
:100520006062052084F820000120E0E72068406830
:1005300000F001000028EBD02068006820F00200E5
:100540002168086000F08EFA05460DE000F08AFA96
:10055000401B0A2808D9606A40F400306062052018
:1005600084F820000120C2E72068406800F0020003
:100570000028EBD1207E012806D12068006840F0D9
:1005800080002168086005E02068006820F0800095
:1005900021680860607E012806D12068006840F06C
:1005A00040002168086005E02068006820F04000F5
:1005B00021680860A07E012806D12068006840F00C
:1005C00020002168086005E02068006820F0200015
:1005D00021680860E07E012806D12068006820F0CC
:1005E00010002168086005E02068006840F01000F5
:1005F00021680860207F012806D12068006840F04B
:1006000008002168086005E02068006820F0080004
:1006100021680860607F012806D12068006840F0EA
:1006200004002168086005E02068006820F00400EC
:1006300021680860D4E9020108432169084361691F
:1006400008436168491E08432168C8610020606250
:10065000012084F82000002049E7000010B586B092
:100660000446002002900390049005901A492068E7
:1006700088422ED100BF1948C06940F00070174968
:10068000C8610846C06900F00070019000BF00BF5B
:1006900000BF0846806940F0040088610846806910
:1006A00000F00400019000BF00BFC81402900020B9
:1006B0000390049002A90A4800F044F84FF48050D7
:1006C0000290022003900320059002A9044800F044
:1006D00039F806B010BD0000006400400010024070
:1006E0000008014070B5044694F82000012822D18A
:1006F000022084F820002068006820F001002168B2
:10070000086000F0AFF905460DE000F0ABF9401BC2
:100710000A2808D9606A40F400306062052084F835
:100720002000012070BD2068406800F00100002812
:10073000EBD16062F6E7606A40F40020606201205D
:10074000F0E700002DE9F8470346002294466EE1E9
:100750004FF0010808FA02F4D1F8008008EA04001A
:10076000A0427DD1DFF8DCA2D1F80480A8EB0A0911
:10077000D0453AD014DCB8F1030F50D009DCB8F101
:10078000000F31D0B8F1010F1CD0B8F1020F49D1E0
:1007900020E0B8F1110F18D0B8F1120F42D11EE0CD
:1007A000B9F5881F25D006DCB9F5803F20D0B9F512
:1007B000801F37D11AE0B9F5001F18D0B9F5041F12
:1007C00030D117E0D1F80CC02DE0D1F80C8008F141
:1007D000040C28E0D1F80C8008F1080C23E0D1F8D3
:1007E0000C8008F10C0C1EE000BF00BF00BF00BF72
:1007F00000BF00BFD1F80880B8F1000F02D14FF060
:10080000040C0BE0D1F80880B8F1010F03D14FF0D0
:10081000080C1C6102E04FF0080C5C6103E04FF033
:10082000000C00E000BF00BFFF2801D8984601E09F
:1008300003F104084646FF2802D84FEA820803E085
:10084000A2F108084FEA88084746D6F800804FF022
:100850000F0909FA07F928EA09080CFA07F900E074
:1008600088E048EA0908C6F80080D1F8048008F05A
:100870008058B8F1805F7DD100BFDFF8CC81D8F817
:10088000188048F00108DFF8C091C9F81880C84600
:10089000D8F8188008F00108CDF8008000BF00BF2C
:1008A0004FEAB9384FEA920958F829504FEA82784E
:1008B0004FEA18794FF00F0808FA09F825EA0805F9
:1008C000DFF88881434502D14FF0000816E0DFF8D9
:1008D0008081434502D14FF001080FE0DFF87481B9
:1008E000434502D14FF0020808E0DFF86C81434530
:1008F00002D14FF0030801E04FF004084FEA82797B
:100900004FEA197908FA09F848EA0505DFF84C8139
:100910004FEA920948F82950D1F8048008F4801869
:10092000B8F5801F0AD1DFF83881D8F8008048EA8E
:100930000008DFF82C91C9F8008009E0DFF8208179
:10094000D8F8008028EA0008DFF81491C9F8008080
:10095000D1F8048008F40018B8F5001F10D1DFF8B2
:10096000008108F10408D8F8008048EA0008DFF8A0
:10097000F09000E05AE009F10409C9F800800DE0A8
:10098000DFF8DC8008F10408D8F8008028EA0008C5
:10099000DFF8CC9009F10409C9F80080D1F804808F
:1009A00008F40038B8F5003F0ED1DFF8B480A8F1A4
:1009B0000408D8F8008048EA0008DFF8A490A9F1FC
:1009C0000409C9F800800DE0DFF89480A8F104085C
:1009D000D8F8008028EA0008DFF88490A9F104091B
:1009E000C9F80080D1F8048008F48038B8F5803F59
:1009F0000ED1DFF86C80A8F10808D8F8008048EA2A
:100A00000008DFF85C90A9F10809C9F800800DE042
:100A1000DFF84C80A8F10808D8F8008028EA000820
:100A2000DFF83C90A9F10809C9F80080521CD1F800
:100A3000008028FA02F8B8F1000F7FF489AEBDE813
:100A4000F88700000000111000100240000801406B
:100A5000000C01400010014000140140080001405A
:100A600008040140014800687047000000000020B1
:100A70000348006803490978084401490860704741
:100A8000000000200800002010B50848006840F071
:100A9000100006490860032000F098F80F2000F0CD
:100AA00007F800F02BF8002010BD000000200240E5
:100AB00070B504460E4800784FF47A71B1FBF0F03F
:100AC0000C490968B1FBF0F5284600F0E9FB08B1D4
:100AD000012070BD102C07D200222146501E00F0CC
:100AE00037F80548046001E00120F2E70020F0E754
:100AF000080000200C0000200400002008B500BF02
:100B00001148806940F001000F49886108468069FA
:100B100000F00100009000BF00BF00BF0846C069A0
:100B200040F08050C8610846C06900F080500090D5
:100B300000BF00BF00BF0549486820F0E06040F0FA
:100B40000070486000BF08BD001002400000014076
:100B50002DE9F05F80460D461646002700F068FE3E
:100B6000074639462A46334601F00700C0F1070A16
:100B7000BAF1040F02D94FF0040A01E0C0F1070AEC
:100B8000D14600F1040ABAF1070F02D24FF0000A71
:100B900001E0A0F1030AD4464FF0010A0AFA09FA6B
:100BA000AAF1010A0AEA020A0AFA0CFA4FF0010B4A
:100BB0000BFA0CFBABF1010B0BEA030B4AEA0B043B
:100BC0002146404600F03CFEBDE8F09F00BF00F02B
:100BD0000702064B19684FF6FF031940044B0B43FD
:100BE00043EA0221014B196000BF70470CED00E0A1
:100BF0000000FA0570B504460D460CB9012070BD21
:100C00005A48006800F00700A8420ED25748006812
:100C100020F007002843554908600846006800F0A6
:100C20000700A84201D00120E9E7207800F0020087
:100C300002281DD1207800F00400042805D14C487A
:100C4000406840F4E0604A494860207800F00800BD
:100C5000082805D14648406840F46050444948603F
:100C60004348406820F0F000A168084340494860CC
:100C7000207800F0010078B36068012806D13C4874
:100C8000006800F4003090B90120B8E760680228DD
:100C900006D13748006800F0007040B90120AEE787
:100CA0003348006800F0020008B90120A7E7304887
:100CB000406820F00300616808432D494860FFF751
:100CC000D1FE064609E0FFF7CDFE801B41F28831D8
:100CD000884202D9032092E707E02548406800F0E7
:100CE0000C006168B0EB810FEDD12048006800F086
:100CF0000700A8420ED91D48006820F007002843CD
:100D00001A4908600846006800F00700A84201D0B0
:100D1000012074E7207800F00400042807D114486B
:100D2000406820F4E060E168084311494860207899
:100D300000F00800082808D10D48406820F46050F1
:100D4000216940EAC1000A49486000F03FF80849BB
:100D50004968C1F30311074A515CC840064908605D
:100D600006480068FFF7A4FE002048E70020024084
:100D700000100240021B00080C00002004000020AC
:100D800001480068704700000C00002000B5FFF724
:100D9000F7FF04494968C1F30221034A515CC84086
:100DA00000BD000000100240121B000800B5FFF754
:100DB000E7FF04494968C1F3C221034A515CC840B6
:100DC00000BD000000100240121B000870B5002199
:100DD0000022002400230020134D696801F00C0557
:100DE000F5B1042D02D0082D19D101E00F4819E00A
:100DF0000F4DC1F38346AB5D01F4803555B10A4D0B
:100E00006D68C5F340450B4E725D084D5D43B5FB03
:100E1000F2F402E0084D03FB05F4204602E000BFB7
:100E2000024800BF00BF70BD0010024000127A00EF
:100E3000F01A0008001B000800093D00F8B5044640
:100E40000CB90120F8BD207800F00100002878D00E
:100E5000F848406800F00C0004280CD0F5484068C1
:100E600000F00C00082811D1F248406800F48030EE
:100E7000B0F5803F0AD1EF48006800F40030002848
:100E80005FD0606800285CD10120DBE700BF6068AC
:100E9000B0F5803F06D1E748006840F48030E5496E
:100EA000086028E0606858B9E248006820F48030A3
:100EB000E04908600846006820F4802008601AE0D5
:100EC0006068B0F5A02F0BD1DA48006840F48020AC
:100ED000D84908600846006840F4803008600AE09D
:100EE000D448006820F48030D24908600846006881
:100EF00020F48020086000BF606888B1FFF7B2FD71
:100F0000054606E0FFF7AEFD401B642801D903202B
:100F100098E7C848006800F400300028F2D010E0DC
:100F2000FFF7A0FD054606E0FFF79CFD401B642887
:100F300001D9032086E7BF48006800F4003000288C
:100F4000F2D1207800F00200022857D1B948406859
:100F500000F00C0050B1B748406800F00C000828C1
:100F600018D1B448406800F4803098B9B14800689E
:100F700000F0020020B12069012801D0012061E7C2
:100F8000AC48006820F0F800616940EAC100A94956
:100F9000086033E02069E8B10120A7490860FFF745
:100FA00061FD054606E0FFF75DFD401B022801D903
:100FB000032047E79F48006800F002000028F2D0B5
:100FC0009C48006820F0F800616940EAC100994936
:100FD000086013E0002098490860FFF743FD0546CC
:100FE00006E0FFF73FFD401B022801D9032029E757
:100FF0009048006800F002000028F2D1207800F04C
:10100000080008282DD1A069B8B101208B490860DB
:10101000FFF728FD054606E0FFF724FD401B0228E8
:1010200001D903200EE78348406A00F0020000283F
:10103000F2D0012000F0A2FA13E000207F490860FE
:10104000FFF710FD054606E0FFF70CFD401B0228E8
:1010500001D90320F6E67748406A00F00200002834
:10106000F2D1207800F00400042873D100277148E1
:10107000C06900F0805070B900BF6E48C06940F090
:1010800080506C49C8610846C06900F080500090EB
:1010900000BF00BF01276A48006800F48070B0B943
:1010A0006748006840F4807065490860FFF7DAFC23
:1010B000054606E0FFF7D6FC401B642801D9032053
:1010C000C0E65F48006800F480700028F2D000BFDE
:1010D000E068012806D15748006A40F001005549F0
:1010E000086227E0E06858B95248006A20F0010021
:1010F000504908620846006A20F00400086219E0BE
:10110000E06805280BD14B48006A40F004004949CB
:1011100008620846006A40F0010008620AE045489B
:10112000006A20F00100434908620846006A20F086
:101130000400086200BFE068A0B1FFF793FC054619
:1011400009E0FFF78FFC401B41F28831884202D949
:10115000032077E622E03748006A00F0020000280A
:10116000EFD012E0FFF77EFC054608E0FFF77AFCBF
:10117000401B41F28831884201D9032062E62D48A4
:10118000006A00F002000028F0D1012F05D12948A3
:10119000C06920F080502749C86100BFE069C8B32A
:1011A0002448406800F00C00082860D0E06902285C
:1011B00048D1002020490866FFF754FC054606E0A8
:1011C000FFF750FC401B022801D903203AE61948DA
:1011D000006800F000700028F2D1206AB0F5803F6E
:1011E00007D11448406820F40030A1680843114931
:1011F0004860D4E9080108430E49496821F4741194
:1012000008430C49486001200B490866FFF72AFC97
:10121000054607E03DE0FFF725FC401B022801D909
:1012200003200FE60348006800F000700028F2D0A9
:101230002FE00000001002400000424280044242C1
:1012400000700040002014490866FFF70BFC0546BB
:1012500006E0FFF707FC401B022801D90320F1E557
:101260000E48006800F000700028F2D111E0E0693B
:10127000012800D1E6E50948466806F48031206A75
:10128000814204D106F47011606A814201D00120CC
:10129000D8E50020D6E500000000424200100240E0
:1012A00070B504462546681EB0F1807F01D3012049
:1012B0000FE0681E4FF0E02148610F214FF0FF3032
:1012C00000F0BEFA00204FF0E0218861072008619D
:1012D000002070BD10B504460CB9012010BDA069F6
:1012E00000B100E000BF94F8410028B9002084F864
:1012F0004000204600F02AF8242084F841002068AD
:10130000C06820F400502168C860204600F0BAF997
:101310002068006920F490402168086120684069D5
:1013200020F02A00216848612068C06840F400501D
:101330002168C86000206064202084F8410084F89F
:1013400042000020606300BFC8E7000010B586B00F
:101350000446002002900390049005901A492068EA
:1013600088422ED100BF1948806940F48040174957
:1013700088610846806900F48040019000BF00BF8A
:1013800000BF0846806940F0040088610846806913
:1013900000F00400019000BF00BF48150290022039
:1013A00003900320059002A90948FFF7CBF94FF4F9
:1013B0008060029000200390049002A90448FFF787
:1013C000C1F906B010BD0000003801400010024015
:1013D000000801402DE9F84F04460E46174699468D
:1013E0004FF0000A94F84100202850D106B117B9F7
:1013F0000120BDE8F88F00206064212084F84100BE
:10140000FFF730FB8246A784E784A068B0F5805FD1
:1014100004D1206910B90025B04602E035464FF0EE
:1014200000081EE05346002280212046CDF800909F
:1014300000F0A6F920B1202084F841000320D8E76D
:1014400045B9B8F80000C0F308002168486008F109
:10145000020803E02878216848606D1CE08C401E7B
:10146000E084E08C0028DDD1534600224021204654
:10147000CDF8009000F084F920B1202084F84100DC
:101480000320B6E7202084F841000020B1E70220C5
:10149000AFE700BFFEE7000010B50F480F49086036
:1014A0002420486000210D488160C1604FF4003164
:1014B00001614FF4A00141610021017601214176D3
:1014C00081760021C17601774177FFF70CF808B1EA
:1014D000FEF7A3FE10BD00000064004014000020D1
:1014E00008B500BF1348806940F0100011498861B9
:1014F0000846806900F01000009000BF00BF00BFE8
:101500000846806940F0200088610846806900F044
:101510002000009000BF00BF00BF0846806940F077
:10152000040088610846806900F00400009000BF54
:1015300000BF08BD0010024010B50B480B49086001
:101540004FF4E1304860002108488160C1600161CA
:101550000C21416100218161C161FFF7BBFE08B12F
:10156000FEF75BFE10BD0000003801403C0000208B
:1015700000BFFEE700BFFEE77047000008B508495E
:101580000968C9084FF47A72B1FBF2F14143009146
:1015900000BF00BF00994A1E00920029F9D108BD82
:1015A0000C000020704710B5FFF762FA10BD00B5BF
:1015B0008FB0282105A8FEF7BEFD14216846FEF76E
:1015C000BAFD01200590000406900020079001203C
:1015D000099002200C90C1030D914FF4E0110E917F
:1015E00005A8FFF72BFC08B1FEF717FE0F200090AF
:1015F00002200190002002904FF4806003900020B0
:10160000049002216846FFF7F5FA08B1FEF705FEDF
:101610000FB000BD704700BF00BF02680C3252E837
:10162000002F22F4907102680C3242E80013002B64
:10163000F3D100BF00BF00BF0268143252E8002F90
:1016400022F001010268143242E80013002BF3D1AA
:1016500000BF016B01290ED100BF00BF02680C3230
:1016600052E8002F22F0100102680C3242E8001309
:10167000002BF3D100BF202180F84210002101632C
:101680007047000070B504462168096921F4405193
:10169000E2681143226811612269A16811436269FD
:1016A00041EA02052168C96841F20C62914329436D
:1016B0002268D1602168496921F44071A26911430F
:1016C000226851612D4A2168914202D1FFF76EFBD9
:1016D00001E0FFF75BFB00EBC00101EB001162686A
:1016E0009200B1FBF2F100EBC00202EB0012636862
:1016F0009B00B2FBF3F26423B2FBF3F202EBC203F2
:1017000003EB0212A1EB8201322202EB01116422EF
:10171000B1FBF2F101F0F00100EBC00202EB0012AC
:1017200063689B00B2FBF3F26423B2FBF3F201EBBC
:10173000021200EBC00101EB001163689B00B1FBDA
:10174000F3F100EBC00303EB00136668B600B3FBD4
:10175000F6F36426B3FBF6F303EBC30606EB0313C1
:10176000A1EB8301322303EB01116423B1FBF3F1FD
:1017700001F00F0111442268916070BD00380140F2
:101780002DE9F84304460D4617469846089E31E079
:10179000701C70B3FFF766F9A0EB0800B04200D8E8
:1017A00016B90320BDE8F8832068C06800F0040083
:1017B000F8B1802D1ED0402D1CD020680068C0F3E9
:1017C000C000B0B100BF0020009020680068009009
:1017D00020684068009000BF00BF2046FFF71BFF55
:1017E0000820606400BF002084F8400000BF012092
:1017F000D8E7FFE7206800682840A84201D101200F
:1018000000E00020B842C3D00020CBE700BFFEE7D5
:101810000FB4054B10B503A9044A029800F034F840
:1018200010BC5DF814FB0000411A000810000020F5
:1018300002480068C0F30220704700000CED00E091
:1018400010B5002804DB0A07130E054A135406E0FE
:101850000A07140E034A00F00F031B1FD45410BDD7
:1018600000E400E018ED00E002E008C8121F08C123
:10187000002AFAD170477047002001E001C1121F11
:10188000002AFBD1704700002DE9FF4F8BB09A462C
:101890000F460546002606E025280BD052460D9936
:1018A00090476D1C761C28780028F5D10FB0304683
:1018B000BDE8F08F0024A0460122604900E0044307
:1018C00015F8013F203B02FA03F00842F7D12878CF
:1018D0002E2817D115F8010F44F004042A280ED041
:1018E0006FF02F022878A0F1300109290AD808EBFF
:1018F000880102EB410100EB01086D1CF2E757F88B
:10190000048B6D1C287869283ED006DC0028CDD0D9
:1019100063280BD0642804D136E0732810D07528D2
:101920004BD052460D999047761C85E017F8040B72
:101930008DF8000000208DF80100E946012003E049
:1019400057F8049B4FF0FF3061074FF0000401D4BB
:101950000AE0641C44450DDA8442FADB19F80410ED
:101960000029F6D106E0641C8442FCDB19F804105F
:101970000029F8D1264404E019F8010B52460D99CC
:101980009047641EF8D257E001CF4FF00A0B0028B1
:1019900002DA40422D2102E0210504D52B218DF8E9
:1019A0002410012103E0E10705D02021F7E70DF124
:1019B000200908910CE00021F9E701CF4FF00A0B54
:1019C000F9E75946FEF7C2FB01F1300209F8012D93
:1019D0000028F6D1ADEB090000F1200B600701D41F
:1019E0004FF00108D84502DDA8EB0B0000E0002015
:1019F0008046002406E009A85246005D0D999047F4
:101A0000641C761C08988442F5DB04E030205246C2
:101A10000D999047761CB8F10001A8F10108F5DC9A
:101A200005E019F8010B52460D999047761CBBF161
:101A30000001ABF1010BF4DC6D1C34E70928010057
:101A400013B50C464FF6FF73012269460248FFF7B3
:101A5000C1FC00981CBD00003C000020A2B0FFF7B4
:101A600013F8FFF7A4FDFFF73BFDFFF715FDFFF7A8
:101A700063FD14A0FFF7CCFEFEF792FB1448FEF7BF
:101A800031FE1DE00020019001A902A8FEF7A0FB95
:101A9000002410E002A800EB0410037B02A800EB76
:101AA0000410021D02A800EB0410016809A0FFF752
:101AB000AFFE601CC4B29DF804008442EADB00BFA4
:101AC000E0E7000043414E20546573740D0A0000A6
:101AD0001400002069643A2025642C646174613A22
:101AE0002025732C6C656E3A2025640D0A000000D9
:101AF00002030405060708090A0B0C0D0E0F10104F
:101B000001020000000000000000010203040607BB
:101B10000809000000000102030400003C1B00084B
:101B2000000000201400000068180008501B000886
:101B30001400002074040000781800080000000061
:101B4000100000000100000000127A0000000000F8
:04000005080000ED02
:00000001FF
